:060000000A128A110C280F
:10000800FE00030EF0000A08F1000A128A11592CAA
:100018000A128A110F280A128A118E240A128A11CA
:10002800CE000A128A118F240A128A11CF000A12EE
:100038008A1190240A128A11D0000A128A11912476
:100048000A128A11D1008313203084003A300A1230
:100058008A1178240A128A11FA01FB0183010A1213
:100068008A1136281530831603138100A0308B00BF
:10007800870185018801FF308600FF308900FF3045
:100088009500960183160317890100308312031324
:10009800BE00BF000A128A1113230A128A110A121B
:1000A8008A1180240A128A110A128A1117240A1244
:1000B8008A110A128A1187240A128A1183120313D9
:1000C800CC01CD010030BE00BF000A128A111323F3
:1000D8000A128A110A128A1180240A128A110A1233
:1000E8008A1117240A128A110A128A1187240A12FD
:1000F8008A110A128A11F8230A128A118312031329
:1001080006188728882882280108CA00CB014A08CF
:10011800F2004B08F3000A128A116F240A128A119E
:100128000A128A1143240A128A11831203134C08F3
:10013800CA004A07203E8400460883138000840AC8
:10014800470880000130CC070318CD0A0030CD07DE
:100158004D08BF004C08BE000A128A1113230A1268
:100168008A110A128A11C9230A128A110A128A11DB
:100178002D240A128A110A128A11CD220A128A1112
:1001880076087704031DC928CA28CE2883120313CA
:10019800CC01CD010C30831203134C064D04031D12
:1001A800D628D7281529CC01CD010A128A11802416
:1001B8000A128A110A128A112D240A128A110A12A5
:1001C8008A1187240A128A110A128A1180240A12B3
:1001D8008A110A128A112D240A128A110A128A1106
:1001E80087240A128A110A128A1180240A128A1193
:1001F8000A128A112D240A128A110A128A118724D6
:100208000A128A110A128A1180240A128A110A1201
:100218008A112D240A128A110A128A1187240A12B5
:100228008A11831203134C084D04031D1C291D2930
:10023800942862280A128A110C2883120313BB011E
:10024800F31F272928292F29F209F309F20A03198C
:10025800F30ABB01BB0AF51F322933293C29F409EB
:10026800F509F40A0319F50A0130F6007608BB0609
:10027800BC01BD01720873040319432944297B2971
:10028800BA01BA0A522901300310F20DF30DFF3EEC
:10029800031D48290130F6007608BA07F31F5529CF
:1002A8005629472901300310BC0DBD0DFF3E031D23
:1002B800572973087502031D632972087402031C09
:1002C800662967296E297208F4027308031CF5036E
:1002D800F5023C1401300310F30CF20CFF3E031D31
:1002E8006F290130BA02031D7A297B2956293B0858
:1002F80003197F2980298529BC09BD09BC0A03196E
:10030800BD0A3D08F3003C08F2000800BD293F3053
:10031800F2000030F300E4290630F2000030F30068
:10032800E4295B30F2000030F300E4294F30F2009A
:100338000030F300E4296630F2000030F300E429CD
:100348006D30F2000030F300E4297D30F200003017
:10035800F300E4290730F2000030F300E4297F308D
:10036800F2000030F300E4296F30F2000030F300AF
:10037800E4297308003A0319C229E2297208003AED
:1003880003198B29013A03199029033A031995296E
:10039800013A03199A29073A03199F29013A0319BF
:1003A800A429033A0319A929013A0319AE290F3AD6
:1003B8000319B329013A0319B829E229F201F30113
:1003C8000800F801F51FE929EA29F129F409F509D6
:1003D800F40A0319F50AF801F80AF31FF429F529B4
:1003E800FA29F209F309F20A0319F30A72087304E5
:1003F8000319FF29002A2F2AF701F70A0E2A0130CC
:100408000310F20DF30DFF3E031D042A0130F60020
:100418007608F707F31F112A122A032A73087502B0
:10042800031D182A72087402031C1B2A1C2A222A7C
:100438007208F4027308031CF503F5020130031077
:10044800F30CF20CFF3E031D232A0130F702031DB3
:100458002E2A2F2A122A78080319332A342A392AED
:10046800F409F509F40A0319F50A7508F300740884
:10047800F2000800003083120313BE000030BD00F4
:100488000030BC000030BB00721C4B2A4C2A632A87
:100498007608BB07770803110318013E0319552A8C
:1004A800BC07780803110318013E03195C2ABD072D
:1004B800790803110318013E0319632ABE070130A6
:1004C800BA000310F60DF70DF80DF90DBA0B652AF1
:1004D80001300310F50CF40CF30CF20CFF3E031D75
:1004E8006D2A7508740473047204031D7C2A7D2A1E
:1004F800482A3E08F5003D08F4003C08F3003B0894
:10050800F2000800831203135108F5005008F400A4
:100518004F08F3004E08F2004130F900C630F800E9
:100528004E30F7006D30F6000A128A113E220A1288
:100538008A11750883120313D1007408D000730858
:10054800CF007208CE003930CE0730300318313072
:10055800CF07003003180130D007003003180130EE
:10056800D1074E08C1004F08C2005008C300510807
:10057800C4001030C500440DC40CC30CC20CC10C1F
:10058800C50BBF2AFF304105BF007F304205C000C0
:100598000800F801F901FB2A0A128A1156230A12E7
:1005A8008A11780883120313BA003A07203E8400A0
:1005B80083130008BB00840A0008BC0039083C0605
:1005C800031DE82A38083B06031DEB2AEC2AF82A03
:1005D8000A128A112D240A128A110130F807031809
:1005E800F90A0030F907FB2AF601F701122B7808FF
:1005F80083120313BA003A07203E840083130008CD
:10060800BB00840A0008BC003B083C04031D0D2BFA
:100618000E2BD02A0130F6000030F70008000A300F
:10062800F2000030F300831203133F08F5003E0880
:10063800F4000A128A1121210A128A1173088312FE
:100648000313C1007208C0000A30F2000030F30042
:100658003F08F5003E08F4000A128A11E5210A1243
:100668008A11730883120313C3007208C200410879
:10067800F3004008F2000A128A118A210A128A112C
:1006880072088312031385004308F3004208F2003E
:100698000A128A118A210A128A1172088312031314
:1006A80088000800F401F5017E2B831203138618D5
:1006B8005E2B5F2B632B0130F4000030F500061928
:1006C800662B672B6C2B0230F4000030F5007E2B74
:1006D80086196F2B702B752B0330F4000030F50052
:1006E8007E2B061A782B792B7E2B0430F4000030F1
:1006F800F5007E2B740875040319832B842B592B62
:100708007508F3007408F2000A128A1194230A1279
:100718008A11750883120313B9007408B800080019
:10072800AB2B831203138716BE2B831203130716F2
:10073800BE2B831203130717BE2B831203138715CF
:10074800BE2B0A128A1180240A128A11BE2B730842
:10075800003A0319B02BA52B7208013A0319952BFF
:10076800033A0319992B013A03199D2B073A0319E8
:10077800A12BA52B0A128A1117240A128A110A1210
:100788008A1187240A128A110800F701F801E62B5A
:100798007708F4007407203E84000008F200840AF9
:1007A8000008F3000A128A1194230A128A110A1205
:1007B8008A112D240A128A110130F7070318F80A42
:1007C8000030F8077708F4007407203E840083138C
:1007D8000008F500840A0008F60075087604031D71
:1007E800F62BF72BCC2B0800F301F4017308F20069
:1007F8007207203E840083138001840A800101303F
:10080800F3070318F40A0030F4077408803AFF006D
:1008180080307F02031D122C0C307302031C152C30
:10082800162CFA2B0800C230831203138100FA0138
:10083800FB010B118B167B08803AFF0080307F028A
:10084800031D282C7D307A02031C2B2C2C2C1F2CEA
:100858000800C230831203138100FA01FB010B1157
:100868008B167B08803AFF0080307F02031D3E2CE8
:1008780019307A02031C412C422C352C08000A122C
:100888008A1186220A128A110330831203133F0544
:10089800C80000304005C9004808013EC6004908A4
:1008A8000318013E003EC70008000B1D5C2C5D2CA0
:1008B800682C83308312031381000130FA07031870
:1008C800FB0A0030FB070B1171088A00700E8300C9
:1008D800FE0E7E0E0900720883120313CE00730801
:1008E800CF00D001D101080064008001840A040609
:1008F800031900340406792C83120313871607168C
:1009080007178715080083120313871207120713A6
:0C09180087110800013400340034003462
:04400E00F43FFF3F3D
:00000001FF
